{
  "abi": [
    {
      "inputs": [
        {
          "internalType": "contract IVault",
          "name": "vault",
          "type": "address"
        }
      ],
      "stateMutability": "nonpayable",
      "type": "constructor"
    },
    {
      "anonymous": false,
      "inputs": [
        {
          "indexed": true,
          "internalType": "bytes32",
          "name": "poolId",
          "type": "bytes32"
        },
        {
          "indexed": false,
          "internalType": "string",
          "name": "metadataCID",
          "type": "string"
        }
      ],
      "name": "PoolMetadataUpdated",
      "type": "event"
    },
    {
      "inputs": [
        {
          "internalType": "bytes32",
          "name": "poolId",
          "type": "bytes32"
        }
      ],
      "name": "_isPoolOwner",
      "outputs": [
        {
          "internalType": "bool",
          "name": "",
          "type": "bool"
        }
      ],
      "stateMutability": "view",
      "type": "function"
    },
    {
      "inputs": [
        {
          "internalType": "bytes32",
          "name": "",
          "type": "bytes32"
        }
      ],
      "name": "poolIdMetadataCIDMap",
      "outputs": [
        {
          "internalType": "string",
          "name": "",
          "type": "string"
        }
      ],
      "stateMutability": "view",
      "type": "function"
    },
    {
      "inputs": [
        {
          "internalType": "bytes32",
          "name": "poolId",
          "type": "bytes32"
        },
        {
          "internalType": "string",
          "name": "metadataCID",
          "type": "string"
        }
      ],
      "name": "setPoolMetadata",
      "outputs": [],
      "stateMutability": "nonpayable",
      "type": "function"
    }
  ],
  "bytecode": {
    "object": "0x60a060405234801561001057600080fd5b506040516106f93803806106f98339818101604052602081101561003357600080fd5b5051606081901b6001600160601b0319166080526001600160a01b031661068d61006c6000398061025752806104e0525061068d6000f3fe608060405234801561001057600080fd5b50600436106100415760003560e01c80632181fd63146100465780638974b803146100d8578063f44f9f1514610109575b600080fd5b6100636004803603602081101561005c57600080fd5b50356101b8565b6040805160208082528351818301528351919283929083019185019080838360005b8381101561009d578181015183820152602001610085565b50505050905090810190601f1680156100ca5780820380516001836020036101000a031916815260200191505b509250505060405180910390f35b6100f5600480360360208110156100ee57600080fd5b5035610252565b604080519115158252519081900360200190f35b6101b66004803603604081101561011f57600080fd5b8135919081019060408101602082013564010000000081111561014157600080fd5b82018360208201111561015357600080fd5b8035906020019184600183028401116401000000008311171561017557600080fd5b91908080601f016020809104026020016040519081016040528093929190818152602001838380828437600092019190915250929550610376945050505050565b005b600060208181529181526040908190208054825160026001831615610100026000190190921691909104601f81018590048502820185019093528281529290919083018282801561024a5780601f1061021f5761010080835404028352916020019161024a565b820191906000526020600020905b81548152906001019060200180831161022d57829003601f168201915b505050505081565b6000807f00000000000000000000000000000000000000000000000000000000000000006001600160a01b031663f6c00927846040518263ffffffff1660e01b815260040180828152602001915050604080518083038186803b1580156102b857600080fd5b505afa1580156102cc573d6000803e3d6000fd5b505050506040513d60408110156102e257600080fd5b505160408051631127a41d60e31b8152905191925033916001600160a01b0384169163893d20e8916004808301926020929190829003018186803b15801561032957600080fd5b505afa15801561033d573d6000803e3d6000fd5b505050506040513d602081101561035357600080fd5b50516001600160a01b03161461036a57600061036d565b60015b9150505b919050565b61037f826104dc565b6103c6576040805162461bcd60e51b8152602060048201526013602482015272141bdbdb081b9bdd081c9959da5cdd195c9959606a1b604482015290519081900360640190fd5b6103cf82610252565b610420576040805162461bcd60e51b815260206004820152601760248201527f43616c6c6572206973206e6f7420746865206f776e6572000000000000000000604482015290519081900360640190fd5b600082815260208181526040909120825161043d928401906105b6565b50817fbccdd5919e4a045110d8eff02f169384df8f76feec5d75614cb01dea4bd988eb826040518080602001828103825283818151815260200191508051906020019080838360005b8381101561049e578181015183820152602001610486565b50505050905090810190601f1680156104cb5780820380516001836020036101000a031916815260200191505b509250505060405180910390a25050565b60007f00000000000000000000000000000000000000000000000000000000000000006001600160a01b031663f6c00927836040518263ffffffff1660e01b815260040180828152602001915050604080518083038186803b15801561054157600080fd5b505afa92505050801561056d57506040513d604081101561056157600080fd5b50805160209091015160015b6105ab573d80801561059b576040519150601f19603f3d011682016040523d82523d6000602084013e6105a0565b606091505b506000915050610371565b600192505050610371565b828054600181600116156101000203166002900490600052602060002090601f0160209004810192826105ec5760008555610632565b82601f1061060557805160ff1916838001178555610632565b82800160010185558215610632579182015b82811115610632578251825591602001919060010190610617565b5061063e929150610642565b5090565b5b8082111561063e576000815560010161064356fea2646970667358221220feb87a5222abea946aa9ed35b564f0fee9c158674dd493a3f28faba0bcde450b64736f6c63430007060033",
    "linkReferences": {}
  },
  "methodIdentifiers": {
    "_isPoolOwner(bytes32)": "8974b803",
    "poolIdMetadataCIDMap(bytes32)": "2181fd63",
    "setPoolMetadata(bytes32,string)": "f44f9f15"
  },
  "id": 81
}